:020000040000FA
:1000000000000228B330FE000130FF008030000005
:10001000000022210000000083160000AE007F08CF
:10002000AD00B530AF000130B000831600002D08E0
:10003000B1002E08B200FF30AD07031CAE0332083A
:10004000310403199A2804302F07B100B201B20D10
:100050003008B2073108FE003208FF00803000008F
:10006000000022210000000083160000B4007F0879
:10007000B3002F08FE003008FF00803000000000B1
:1000800022210000000083160000B600B2007F08A5
:10009000B100B50002302F07B100B201B20D300837
:1000A000B2073108FE003208FF0080300000000077
:1000B00022210000000083160000B200B8007F0873
:1000C000B700B100831600003308B7003408B80049
:1000D000FF30B307031CB40338083704031993280F
:1000E0003508FE003608FF00803000000000432184
:1000F0000000000083160000B700310883120313CC
:100100008400831383160000321883173708831284
:100110000313800083160000B50A0319B60AB10A5A
:100120000319B20A6228063083160000AF070318CD
:10013000B00A1528000000005629080083160000A8
:10014000BA007F08B9007E08BC007D08BB00BD0175
:10015000BE01831600003C088039031D0130BF003A
:100160003F08031DCA280310BB0DBC0D3C083A0212
:10017000031DBC283B0839020318C428031083164A
:100180000000BC0CBB0CCA2883160000BE0A3E0847
:10019000BD00A928831600003C083A02031DD2289E
:1001A0003B083902031CDC28831600003B08B90217
:1001B0003C08031C3C0FBA02031083160000BC0C61
:1001C000BB0C3D08BE00BD033E08031DCA2839080C
:1001D000FF003A0808008316A6008312850101304B
:1001E00083162602031C2129073026020318212921
:1001F000A603013083128A00043083162607031CED
:10020000032983128A0A82000A290D291029142938
:1002100018291D29831285142129831205142129E7
:10022000831205148514212983120514051521292B
:10023000831205148514051521298312051405154B
:1002400005160800003A03192A29803A03193429AF
:10025000FF0100347E08840083137F188317000891
:10026000FF00840A00080800000000005121FD0082
:10027000FE0FFF03FF0A000000005121FC007D0873
:10028000FF007C080800003A03194A29803A031944
:10029000512900347E08840083137F1883170008D7
:1002A00008007F088A007E0882000800AA218316C1
:1002B000A001A101A2018316A10A0319A20A01301B
:1002C000FF00003087218316A3018312851E6A294F
:1002D0008316A30A83162308013A031D82292008E6
:1002E000031D82290630FD000030FE002108FF00BA
:1002F00022089E207F088316A400A500A400240ADB
:10030000A500EB2083162308A0005B2908008316B4
:10031000A8007F08A700A901AA01831628082A02BD
:10032000031D9429270829020318A929E8308316F8
:10033000AB000330AC000000FF308316AB07031C9A
:10034000AC032C082B04031D9B29A90A0319AA0A34
:100350008D2908002030831685009F010730831205
:1003600099008501080001340034BB340134203485
:080370000034013400340034B4
:00000001FF
